:020000040000FA
:0400000081EF06F096
:08000800056ED8CF06F0E0CF31
:1000100007F00001E9CF0DF0EACF08F0E1CF09F0D9
:10002000E2CF0AF0D9CF0BF0DACF0CF0F3CF14F017
:10003000F4CF15F0FACF16F000C00FF001C010F0A9
:1000400002C011F003C012F004C013F0A0AA2CEFFC
:1000500000F0A1BA70EF05F00FC000F010C001F081
:1000600011C002F012C003F013C004F00E8E0DC0D8
:10007000E9FF08C0EAFF09C0E1FF0AC0E2FF0BC0C8
:10008000D9FF0CC0DAFF14C0F3FF15C0F4FF16C08F
:10009000FAFF055007C0E0FF06C0D8FF1000F76A5E
:1000A000AE0FF66E000EF7220900F55012000401A3
:1000B00000000000000000000000000000000DAE85
:1000C00003D0F2CF0EF0F29EF76AE00FF66E000E4C
:1000D000F7220900F5500DAE02D00EBEF28E1200CE
:1000E00040002000000000000000000000000000B0
:1000F0000000000000000000000000000000000000
:10010000F76A100FF66E010EF7220900F550120083
:1001100009022000010100C0320904000002FFFFB3
:10012000FF000705810220000107050102200001F0
:10013000F76A400FF66E010EF7220900F550120023
:100140000100F76A520FF66E010EF7220900F55012
:1001500012001201100100000040D8040B00010041
:1001600001020001F76A740FF66E010EF722090012
:10017000F550120000041400F76A880FF66E010EA5
:10018000F7220900F55012000403090410036A0065
:1001900050006900630055007300620012035000B4
:1001A000430043004D0020005500530042006D9273
:1001B000699468947BEF05F06A6A689284EF05F0B1
:1001C000576A57520AE1036A5750240FE96E000E2E
:1001D0000320EA6EEF6A572AF4D71A6A010E1B6EE3
:1001E000196A000C010E606F60510F080EE3700E6B
:1001F0006025016E0F0E036ED8B0032A01C0E9FF1F
:1002000003C0EAFFEF6A602BEFD71E6A1D6A000C7D
:10021000400E0401016F050E036F026B880E006F24
:10022000046B050E076F400E066F0001000C6A6A32
:10023000686A9F0E6B6E390E696E6E6AC1DFD2DF1F
:10024000160E706E68A602D06896FCD76D98E0DF37
:10025000030E1F6E8AEF05F0698468986D8290EF37
:1002600005F0689C96EF05F070A002D0D1DF709089
:10027000689A9CEF05F05BC020F0000CFF0E206E2A
:10028000000C596A235235E059503F0832E31C50A4
:1002900005E0020A0DE0010A15E01ED0036A2250B3
:1002A000F2CF5BF0F29E2CDF5BBEF28E5A6E14D062
:1002B000036A2250F2CF5BF0F29E5EDF5BBEF28EED
:1002C0005A6E0AD0036A2250F2CF5BF0F29E39DFF9
:1002D0005BBEF28E5A6E00D0222A23065950592A4C
:1002E000036A400FE96E050E0320EA6E5AC0EFFF65
:1002F000C9D7235204E15950400801E0196A59C096
:100300005BF0B9DF000C226A1C6A05010351010A87
:10031000000105E0030A08E0010A09E01FD0120EFF
:10032000236E030E1C6E1CD0200E236E19D0020EFD
:100330001C6E036A05010251F2CF58F0F29E0001D3
:1003400011DF58BEF28E226E036A2250F2CF58F0AF
:10035000F29E12DF58BEF28E236E02D08FDF0CD0D9
:100360000501075305E12350065D02E206C523F0AF
:10037000010E196E000185DFD6EF02F0585204E13C
:10038000040E1F6E2FDFC1D0050E1F6E5B6E800E38
:100390005A6E010E596E59500F08D8A0B6D05C6A3B
:1003A000036A5950F2CF60F0F29E79DE60BFF28EA0
:1003B000000A51E0040E5C6ED8905934036AF2CF03
:1003C00060F0F29E7CDE0900F5CF03F060BFF28E94
:1003D0005D6E03C05EF05950080DF350010F016EC1
:1003E000040E036ED8B0032A01C0E9FF03C0EAFF80
:1003F0005DC0EFFF5950080DF350020F016E040E5F
:10040000036ED8B0032A01C0E9FF03C0EAFF5BC056
:10041000ECFFED525AC0EFFFD8905934036AF2CF87
:1004200060F0F29E4CDE0900F5CF03F060BFF28E63
:100430005A2603505B22880E5F6E5EB05F805EB20C
:100440005F825950080DF3CF01F0040E01C0E9FF9F
:10045000EA6E5FC0EFFF036A5950F2CF60F0F29E80
:100460001EDE60BFF28E000A31E05C825950080D3A
:10047000F350060F016E040E036ED8B0032A01C0BC
:10048000E9FF03C0EAFF5BC0ECFFED525AC0EFFF8B
:10049000D8905934036AF2CF60F0F29E10DE090062
:1004A000F5CF03F060BFF28E5A2603505B225950FD
:1004B000080DF350040F016E040E036ED8B0032A2A
:1004C00001C0E9FF03C0EAFF400EEF6E5C50060872
:1004D00002E10E0E5C6E036A5950F2CF60F0F29E9C
:1004E000DEDD60BFF28E020801E05C88700E5924E8
:1004F000016E0F0E036ED8B0032A01C0E9FF03C0DE
:10050000EAFF5CC0EFFF592A46D7D0EF02F00501A1
:10051000015100010DE0010A14E0020A1EE0060A82
:1005200027E0030A2CE00E0A2BE0010A2FE03CD062
:100530001BC040F50501416B020E5B6E00019BDEA6
:1005400035D00501022D06D0010E1B165B6A000195
:1005500092DE02D0000192DE29D00501022D05D0E5
:100560001B825B6A000187DE02D0000187DE1ED09D
:10057000020E196E02C521F05B6A7DDE17D0C3D66C
:100580001AC040F5010E5B6E76DE10D005010251F7
:10059000010808E302C51AF002C558F00001EED6C2
:1005A0005B6A69DE000102D069DE00D0F7EF03F07C
:1005B0001AC058F005010151000105E00A0A0BE0DC
:1005C000010A2BE03CD00501406B416B020E5B6ED3
:1005D000000151DE36D058521EE0010E585C036A0D
:1005E000F2CF5AF0F29EA4DD5ABEF28E016E0501E2
:1005F000045DD8A002D000010ED0036A0451240F7C
:10060000E96E000E0320EA6EEFCF40F5010E5B6E3F
:10061000000131DE01D032DE14D058520EE0036A00
:1006200005010451240FE96E000E0320EA6E02C595
:10063000EFFF5B6A00011FDE01D020DE02D01EDE6C
:1006400000D0F7EF03F0599058BE5980589E59A03A
:1006500010D0036A5850F2CF5AF0F29E20DD5ABEF5
:10066000F28E000A02E1000E01D0010E016E10D0E0
:100670000FD0036A5850F2CF5AF0F29E10DD5ABEE6
:10068000F28E000A02E1000E01D0010E016E00D0D0
:10069000BAEF03F0599058BE5980589E59A010D017
:1006A0005850080DF350040F016E040E036ED8B0BD
:1006B000032A01C0E9FF03C0EAFF880EEF6E09D0EC
:1006C0005850080DF3CF01F0040E01C0E9FFEA6EA7
:1006D000EF6AC9EF03F0599058BE5980589E59A04F
:1006E00010D05850080DF350040F016E040E036E25
:1006F000D8B0032A01C0E9FF03C0EAFF840EEF6E01
:100700000AD05850080DF3CF01F0040E01C0E9FFE4
:10071000EA6E840EEF6ECFEF03F0599058BE598009
:10072000589E59A010D05850080DF350040F016E78
:10073000040E036ED8B0032A01C0E9FF03C0EAFF2C
:10074000EFCF5AF00AD05850080DF3CF01F0040E45
:1007500001C0E9FFEA6EEFCF5AF05AAE02D05AB4A8
:1007600002D0000E01D0010E016ED9EF03F004C5D6
:1007700058F069D7015229E005010151010A000131
:1007800005E0020A09E0030A0DE01DD004C558F097
:1007900081D75B6A70DD19D004C558F09CD75B6ABD
:1007A0006ADD13D00501406B416B04C558F00001B0
:1007B000B4D7015204E0010E0501406F0001020EA2
:1007C0005B6E59DD02D05ADD00D0F7EF03F0196AF5
:1007D000050100517F0B000105E0010A04E0030A56
:1007E00003E003D094D6E4D6C2D748DD00D01BEF97
:1007F00005F05850080DF3CF01F0040E01C0E9FFD9
:10080000EA6EEFCF5AF05950020806E15AAC02D016
:10081000596A02D0010E596E5950030812E1840E34
:100820005A6E5850080DF350040F016E040E036EFB
:10083000D8B0032A01C0E9FF03C0EAFF840EEF6EBF
:1008400009D0592C03D0C80E5A6E04D0595202E177
:10085000880E5A6E036A010E026E5850006E05E053
:10086000D89002360336002EFBD70250FF0A006EE6
:10087000FF0E031A00501D1603501E16D890583450
:10088000036AF2CF5DF0F29E1ADC0900F5CF03F0A7
:100890005DBEF28E5B6E03C05CF05850080DF350E5
:1008A000010F016E040E036ED8B0032A01C0E9FFE8
:1008B00003C0EAFF5BC0EFFF5CB05A805CB25A82B3
:1008C0005850080DF3CF01F0040E01C0E9FFEA6EA5
:1008D0005AC0EFFF000C5850080DF350040F016E82
:1008E000040E036ED8B0032A01C0E9FF03C0EAFF7B
:1008F000EFCF5CF05CBE5BD05850080DF350050F95
:10090000016E040E036ED8B0032A01C0E9FF03C0D4
:10091000EAFF59C0EFFF5B50020816E15850080D7E
:10092000F350040F016E040E036ED8B0032A01C009
:10093000E9FF03C0EAFFEFCF5CF05CAC02D05B6A7A
:1009400002D0010E5B6E13D05B50040810E15850CA
:10095000080DF3CF01F0040E01C0E9FFEA6EEFCFFE
:100960005CF05CAC03D0010E5B6E01D05B6A5B2C6B
:1009700003D0C80E5C6E04D05B5202E1880E5C6E40
:100980005AB05C805AB25C825850080DF350040F84
:10099000016E040E036ED8B0032A01C0E9FF03C044
:1009A000EAFF5CC0EFFF010E016E03D000D0000E25
:1009B000016E000C585202E12BDC0FD0036A010ECD
:1009C000026E5850006E05E0D89002360336002EB5
:1009D000FBD702501D1203501E12000C59C06EFFAF
:1009E000595203E0040E1F6E02D0020E1F6EFEEF7E
:1009F00004F01A6A196A21C059F0F0D70AEF05F01D
:100A0000585208E1192C02D03CDC04D019500208DD
:100A100001E1EFD7000C6C30576E573257321F0E82
:100A200057166C523BE1040100513C0B34081BE1AA
:100A3000046B0001CCD6203C05D0586A030E596ED9
:100A4000D8DE0ED0586A020E596ED3DE2050FE0852
:100A500007E0586A5A6A20C059F0040E5B6E3BDF0B
:100A60006D9819D0040100513C0B040815E1586A37
:100A70000001A0DF586A020E596EBBDE2050FE084E
:100A80000AE0203C01D007D0586A5A6A20C059F0C9
:100A9000010E5B6E20DF040120D000016C500408C1
:100AA00012E1FF0E206E586AABDF203C01D008D067
:100AB000586A5A6A20C059F0020E5B6E0CDF02D0F1
:100AC00008EC01F009D06CB404D057C058F072DFC4
:100AD00003D057C058F094DF04010001A1EF05F0E6
:100AE0001F5201E12FD068522DE068A404D069A400
:100AF00002D0D7EF00F06DA201D024D068A204D0BC
:100B000069A202D0DCEF00F068A004D069A002D096
:100B100017EF01F068A804D069A802D02CEF01F00B
:100B200068AC04D069AC02D031EF01F068AA04D0FF
:100B300069AA02D034EF01F068A604D069A602D0F9
:100B40006AD76896A19A2CEF00F0EA6A460EE96E21
:100B5000EF500EE00F0E016E006A002EFED7012E40
:100B6000FBD78F0E006E002EFED70000EF2EF2D7BF
:100B700093EF06F06D6A696A080E6F6E9450300943
:100B8000946E1F6A186AF2BE188EF29EE0EC00F0B6
:100B900018BEF28E1E6A1D6AF1EF05F0186AF2BEE9
:100BA000188EF29EE0EC00F018BEF28E6D6A140E04
:100BB0006F6E696A6D86010E1F6EE2EF05F06DB60D
:100BC00001D0ECD71F2C0BD06DBA09D0686A696AC6
:100BD000A08AC00EF212110E696E020E1F6E000C7A
:100BE000C9D7EDDF1F500208FCE196EF06F01A525C
:100BF00002E10400FCD798EF06F04A50080DF350CC
:100C0000020F016E040E036ED8B0032A01C0E9FF83
:100C100003C0EAFFECCF03F0ED52EFCF4FF003C07B
:100C200050F04A50080DF350010F016E040E036E90
:100C3000D8B0032A01C0E9FF03C0EAFFEF50036AFE
:100C4000526E03C053F04A50080DF3CF01F0040E6A
:100C500001C0E9FFEA6EEFCF51F051B0538051B2BD
:100C6000538253504E5C08E303E14D50525C04E262
:100C700053C04EF052C04DF0536A526A53504E5C0E
:100C80001AE303E14D50525C16E24FC0E9FF50C039
:100C9000EAFFEFCF56F04CC0EAFF4BC0E9FF56C069
:100CA000EFFF4B2AD8B44C2A4F2AD8B4502A522AE4
:100CB000D8B4532AE3D74DC001F04EC002F06CEF18
:100CC00006F045C04AF047C04CF046C04BF049C062
:100CD0004EF048C04DF091D702C049F001C048F035
:100CE000186AF2BE188EF29E45C058F0020E596E78
:100CF00080DD18BEF28E48C001F049C002F0A7EFB7
:100D000006F0F86AD09E0D8EEA6AE96AC150C00BFF
:100D10000F09C16E070EB46E1F6A236A020E456E7C
:100D2000FA0E466E12D7452EFBD75AD748DF5FD74B
:100D3000C00EF2121A5215E01DA213D0010E456E1C
:100D4000476A250E466E496A200E486EBAD725506E
:100D50007F0802E193908A8025507E0802E19390FB
:060D60008A90E8D70300B1
:020000040030CA
:0E00000020023E1E008381000FC00FE00F4063
:00000001FF
;PIC18F4550
